:020000040800F2
:10000000000002200D030008150300081903000872
:10001000A1030008A5030008F10300080000000088
:100020000000000000000000000000003D04000887
:1000300041040008000000004504000849050008CC
:10004000590400085904000859040008590400081C
:10005000590400085904000859040008590400080C
:1000600059040008590400085904000859040008FC
:1000700059040008590400085904000859040008EC
:1000800059040008590400085904000859040008DC
:1000900059040008590400085904000859040008CC
:1000A00059040008590400085904000859040008BC
:1000B00059040008590400085904000859040008AC
:1000C000590400085904000859040008590400089C
:1000D000590400085904000859040008590400088C
:1000E000590400085904000859040008590400087C
:1000F000590400085904000859040008590400086C
:10010000590400085904000859040008590400085B
:10011000590400085904000859040008590400084B
:10012000590400085904000859040008590400083B
:10013000590400085904000859040008590400082B
:10014000590400085904000859040008590400081B
:10015000590400085904000859040008590400080B
:1001600059040008590400085904000859040008FB
:100170005904000859040008590400080000000050
:10018000590400085904000800B583B001F038FD97
:1001900040F20003C2F200034BF6BA22CCF6DE2294
:1001A0001A6040F28C53C2F200031A6040F25C41C4
:1001B000C0F600010CE00A684B6801F10C04886885
:1001C00003E011681960043304329842F9D82146DB
:1001D00040F27443C0F600039942ECD340F20003AE
:1001E000C2F200031A6845F27863C1F234239A42DE
:1001F0000AD140F28C53C2F200031A6845F232432E
:10020000C9F676039A4200D0FEE740F29053C2F25C
:1002100000034BF6BA22CCF6DE221A6040F27C7361
:10022000C2F200031A6040F27443C0F600030AE011
:10023000194651F8082B5B6802E000201060043278
:100240009342FAD80B4640F28442C0F60002934231
:10025000EED340F29053C2F200031B682BB940F278
:100260007C73C2F200031B6803B1FEE700F0C2F921
:1002700001A8694601F066FA40F28442C0F6000225
:1002800040F28443C0F60003D31A9D10002407E017
:1002900040F28443C0F6000353F8243098470134F9
:1002A000A542F5DC40F28442C0F6000240F28443ED
:1002B000C0F60003D31A9D10002407E040F28443E7
:1002C000C0F6000353F8243098470134A542F5DC0A
:1002D0000198009900F096F9054640F28442C0F674
:1002E000000240F28443C0F60003D31A9C1007E0DA
:1002F000013C40F28443C0F6000353F82430984791
:10030000002CF5DC284601F09DF900BF08B5FFF789
:100310003BFF00BF00BEFEE71EF0040F0CBFEFF373
:100320000880EFF309807146484A10472DE9F043F1
:1003300083B0054689464FF46D44CEF20004676BE6
:10034000A66BD4F82880236B13F0020F14D04FF45F
:100350006D40CEF20000C36A002B0DDA28464BF642
:10036000AB6101F0E7FC38B14FF46D43CEF200030E
:100370004FF00042DA620FE049F2A400C0F600003C
:1003800001F0B6FBCDF80090284641463A46334688
:1003900001F044FC00BEFEE703B0BDE8F08300BFFF
:1003A00000BEFEE71EF0040F0CBFEFF30880EFF372
:1003B00009807146264A10472DE9F04182B0074670
:1003C00088464FF46D44CEF20004666BA56BA46AB8
:1003D00049F2B400C0F6000001F08AFBCDF80080BD
:1003E0003846214632462B4601F018FC00BEFEE797
:1003F0001EF0040F0CBFEFF30880EFF30980714685
:10040000144A10472DE9F04182B0074688464FF460
:100410006D44CEF20004666BA56BA46A49F2C0007D
:10042000C0F6000001F064FBCDF80080384621469C
:1004300032462B4601F0F2FB00BEFEE700BEFEE7AF
:1004400000BEFEE700BEFEE7704700002D03000877
:0C045000B90300080504000800BEFEE728
:10045C002094000800000020900500202094000843
:10046C000000001000000010900500208007002004
:08047C00000000100000001058
:1004880030B587B04FF46053C4F202031A6B42F0E0
:1004980008021A634FF400550195012302930222C2
:1004A800049203934FF44064C4F20204204601A965
:1004B80000F0E6F920462946002200F0BFFB07B00D
:1004C80030BD00BF40F20403C2F200031A6844F6CC
:1004D800D353C1F26203A3FB02129209013AB2F1AB
:1004E800807F0FD24EF21003CEF200035A604FF411
:1004F8006D42CEF20002F02182F8231000229A60A9
:1005080007221A60704700BF40F27073C2F20003FE
:10051800186040F27073C2F200031B68002BF8D118
:10052800704700BF40F27073C2F200031B6833B11A
:1005380040F27073C2F200031A68013A1A607047F9
:1005480008B500F0F5F8FFF7EDFF08BD30B595B038
:10055800002401944FF46053C4F202031A6C42F071
:1005680080521A641B6C03F080530193019B029420
:100578004FF4E043C4F200031A6842F480421A6060
:100588001B6803F480430293029B01230893099399
:100598004FF480030F93082310934FF4A87311931B
:1005A80002251295072313930E9508A800F064FB03
:1005B8000F230393049505944FF4A05306934FF427
:1005C8008053079303A8052100F048FE00F0BAFF06
:1005D80044F6D353C1F26203A3FB0020800900F064
:1005E8001BF9042000F030F915B030BD08B500F053
:1005F80083F8FFF7ABFF01F03BFC08BD70B504467C
:100608000D4601F09FFA48F6B850C0F6000001F018
:1006180089FA48F6CC50C0F6000002F0B1F940F271
:100628000C03C2F200031B6848F6E850C0F600004D
:1006380001211822DB6801F051FE40F20403C2F2E6
:10064800000348F60460C0F60000196801F04CFA8F
:10065800FFF738FFFFF714FF012CD8BF052604DD8C
:10066800686801F073FC0646FFE70024254625E08C
:100678004FF44060C4F202004FF40051012200F030
:10068800DDFA40F2EE20002C08BF4FF47A70FFF735
:100698003BFF4FF44060C4F202004FF400510022C7
:1006A80000F0CCFAFA20FFF72FFF013548F61C605E
:1006B800C0F60000294601F017FA0134B442D7DB2E
:1006C800002070BD704700BF10B5044640F2040317
:1006D800C2F200031A6844F6D353C1F26203A3FBC3
:1006E8000210800900F098F84FF0FF3021460022F0
:1006F80000F04AF8002010BD08B54FF47053C4F25A
:1007080002031A6842F400721A601A6842F480629E
:100718001A601A6842F480721A60032000F016F812
:100728000F20FFF7D1FFFFF7CDFF002008BD00BF66
:1007380040F27473C2F200031A6801321A607047FB
:1007480040F27473C2F200031868704710B504468B
:10075800C31E042B06D948F62860C0F60000A42161
:1007680001F0B6F904F007044FF46D43CEF200032C
:10077800D9684FF6FF020A4042EA042242F0BF62FB
:1007880042F40032DA6010BD70B506460D461446D4
:100798000F2A06D948F62860C0F60000BC2101F0EF
:1007A80097F90F2D06D948F62860C0F60000BD213C
:1007B80001F08EF94FF46D43CEF20003DB68C3F30A
:1007C8000223C3F10701042928BF04211A1D062AA0
:1007D8008CBF033B0023012202FA01F101390D40CD
:1007E8009D4002FA03F3013B1C402C43002E0ADA19
:1007F80006F00F062401E4B24EF6FC43CEF20003E5
:1008080033441C7670BD2401E4B206F1604000F563
:10081800614080F8004370BD0138B0F1807F10D28C
:100828004EF21003CEF2000358604FF46D42CEF240
:100838000002F02182F823100020986007221A6035
:1008480070470120704700BF10B50446042818BF40
:10085800002807D048F62860C0F6000040F2B3111F
:1008680001F036F9042C4EF21003CEF200031A6898
:100878000CBF42F0040222F004021A6010BD00BF4F
:100888002DE9F04F83B007460D460022C4F202025C
:100898004FF48063C4F20203904218BF984230D0EC
:1008A8004FF40062C4F202024FF44063C4F2020340
:1008B800904218BF984224D04FF48052C4F20202EA
:1008C8004FF4A053C4F20203904218BF984218D0C4
:1008D8004FF4C052C4F202024FF4E053C4F20203D0
:1008E800904218BF98420CD04FF40053C4F2020350
:1008F800984206D048F65C60C0F60000C52101F0B9
:10090800E7F82B8833B948F65C60C0F60000C621CA
:1009180001F0DEF86B68112B18BF012B2AD9022BC6
:1009280028D0122B26D00022C1F21102934221D0E6
:100938000022C1F2210293421CD00022C1F23102EE
:10094800934217D00022C1F21202934212D0002221
:10095800C1F2220293420DD00022C1F23202934228
:1009680008D0032B06D048F65C60C0F60000C7210B
:1009780001F0AEF8AB68022B06D948F65C60C0F609
:100988000000C82101F0A4F8002451E1A146012685
:10099800A6402B6803EA0608B04540F048816B681A
:1009A800122B18BF022B4FD12B69002B18BF092B14
:1009B80039D0C3B3BBB3B3B3ABB3012B33D032D04D
:1009C800022B30D02FD02ED0032B2CD0042B2AD0A2
:1009D80029D028D0052B26D025D0092B23D0062BAB
:1009E80021D0092B1FD0072B1DD01CD01BD0082BC2
:1009F80019D018D017D0092B15D014D00A2B12D023
:100A080011D00B2B0FD00C2B0DD00CD00D2B0AD0E6
:100A18000C2B08D00F2B06D048F65C60C0F60000FF
:100A2800D92101F055F8E308083357F8231004F0EA
:100A3800070292000F20904021EA0000296901FA7C
:100A480002F2024347F823203A684FEA440A4FF07B
:100A5800030B0BFA0AFB6FEA0B0B0BEA02026B683B
:100A680003F0030303FA0AF313433B606B685A1E4F
:100A7800112B18BF012A01D9122B1CD1EB68032BAB
:100A880006D948F65C60C0F60000EC2101F020F8B9
:100A9800BA680BEA0202EB6803FA0AF31343BB6075
:100AA8007B6823EA06066B68C3F3001303FA09F9A7
:100AB80049EA06067E60FB680BEA030BAB6803FA9B
:100AC8000AF343EA0B03FB606B6813F0805F00F0E6
:100AD800AE80002301934FF46053C4F202035A6CB2
:100AE80042F480425A645B6C03F480430193019B97
:100AF800A2084FF46053C4F20103911C53F821601B
:100B080004F003039B000F20984026EA0000002110
:100B1800C4F202018F4208BF002140D04FF4806127
:100B2800C4F202018F4208BF012138D04FF400619E
:100B3800C4F202018F4208BF022130D04FF4406155
:100B4800C4F202018F4208BF032128D04FF480511C
:100B5800C4F202018F4208BF042120D04FF4A051F3
:100B6800C4F202018F4208BF052118D04FF4C051CA
:100B7800C4F202018F4208BF062110D04FF4E051A1
:100B8800C4F202018F4208BF072108D04FF4005178
:100B9800C4F202018F420CBF08210921FFE701FAC4
:100BA80003F343EA00014FF46053C4F20103023235
:100BB80043F822104FF47053C4F201031A686FEA25
:100BC800080303EA0201686810F4803F18BF48EA86
:100BD80002014FF47052C4F201021160526803EA34
:100BE8000201686810F4003F18BF48EA02014FF498
:100BF8007052C4F201025160926803EA0201686807
:100C080010F4801F18BF48EA02014FF47052C4F272
:100C180001029160D2681340696811F4001F18BF7F
:100C280048EA02034FF47052C4F20102D36001345F
:100C38000F2C7FF6ABAE03B0BDE8F08F70B505465C
:100C480014460E4639B948F65C60C0F6000040F21A
:100C5800B11100F03DFF012C07D948F65C60C0F6E1
:100C680000004FF4D97100F033FF0CB1AE6170BDD4
:100C78003604AE6170BD00BF30B583B0044603686A
:100C88000F2B06D948F6A060C0F60000F52100F049
:100C98001FFF236813F0010F5DD06368052B18BF91
:100CA800012B06D948F6A060C0F60000FA2100F032
:100CB8000FFF4FF46053C4F202039B6803F00C0368
:100CC800042B10D04FF46053C4F202039B6803F066
:100CD8000C03082B12D14FF46053C4F202035B6873
:100CE80013F4800F0AD04FF46053C4F202031B6858
:100CF80013F4003F2FD063686BBB44E2227943F6BC
:100D08000203C4F202031A70636893B1FFF718FD77
:100D1800054605E0FFF714FD401B642800F2358204
:100D28004FF46053C4F202031B6813F4003FF1D080
:100D380011E0FFF705FD054605E0FFF701FD401B43
:100D4800642800F224824FF46053C4F202031B6843
:100D580013F4003FF1D1236813F0020F00F09780DD
:100D6800E368012B07D948F6A060C0F600004FF4ED
:100D7800967100F0ADFE23691F2B07D948F6A060D5
:100D8800C0F6000040F22D1100F0A2FE4FF46053AF
:100D9800C4F202039B6813F00C0F10D04FF4605399
:100DA800C4F202039B6803F00C03082B2AD14FF40A
:100DB8006053C4F202035B6813F4800F22D14FF42E
:100DC8006053C4F202031B6813F0020F05D0E368F6
:100DD800012B18BF012040F0EF814FF46053C4F29B
:100DE80002031A6822F0F8022369F82191FAA1F1A6
:100DF800B1FA81F18B401A434FF46053C4F20203F5
:100E08001A6044E0E3685BB30023C4F2472301227D
:100E18001A60FFF795FC054605E0FFF791FC401BBB
:100E2800022800F2B6814FF46053C4F202031B6833
:100E380013F0020FF1D04FF46053C4F202031A68A2
:100E480022F0F8022369F82191FAA1F1B1FA81F1AF
:100E58008B401A434FF46053C4F202031A6016E041
:100E68000023C4F2472300221A60FFF769FC0546F5
:100E780005E0FFF765FC401B022800F28C814FF467
:100E88006053C4F202031B6813F0020FF1D1236808
:100E980013F0080F3DD06369012B07D948F6A0600D
:100EA800C0F6000040F26D1100F012FE6369C3B194
:100EB8004FF46863C4F2472301221A60FFF740FC2D
:100EC800054605E0FFF73CFC401B022800F265815F
:100ED8004FF46053C4F202035B6F13F0020FF1D0BA
:100EE80017E04FF46863C4F2472300221A60FFF743
:100EF80027FC054605E0FFF723FC401B022800F20B
:100F08004E814FF46053C4F202035B6F13F0020F7B
:100F1800F1D1236813F0040F66D0A368052B18BF1E
:100F2800012B07D948F6A060C0F6000040F29711DF
:100F380000F0CEFD002301934FF46053C4F2020386
:100F48001A6C42F080521A641B6C03F080530193B0
:100F5800019B4FF4E043C4F200031A6842F4807224
:100F68001A60FFF7EDFB054605E0FFF7E9FB401BBC
:100F7800022800F216814FF4E043C4F200031B6814
:100F880013F4807FF1D0227A43F67003C4F202038F
:100F98001A70A368A3B1FFF7D3FB054607E0FFF774
:100FA800CFFB401B41F28833984200F2FC804FF49B
:100FB8006053C4F202031B6F13F0020FEFD013E06B
:100FC800FFF7BEFB054607E0FFF7BAFB401B41F2FF
:100FD8008833984200F2E9804FF46053C4F2020368
:100FE8001B6F13F0020FEFD1A369022B07D948F644
:100FF800A060C0F600004FF4E67100F069FDA36937
:101008000020002B00F0D8804FF46052C4F2020296
:10101800926802F00C02082A08BF012000F0CC8078
:10102800022B40F09880E369002B18BFB3F5800FBE
:1010380007D048F6A060C0F6000040F2D51100F0D5
:1010480047FD236A3F2B07D948F6A060C0F6000089
:101058004FF4EB7100F03CFD636A323BB3F5BF7FA0
:1010680007D948F6A060C0F6000040F2D71100F09A
:101078002FFDA36A022B18BF042B0BD0062B09D017
:10108800082B07D048F6A060C0F600004FF4EC71BA
:1010980000F01EFDE36A043B0B2B07D948F6A0605D
:1010A800C0F6000040F2D91100F012FD6023C4F22E
:1010B800472300221A60FFF743FB054604E0FFF7C9
:1010C8003FFB401B022872D84FF46053C4F202035E
:1010D8001B6813F0007FF2D1E269236A1A43636A3E
:1010E80047F6C07191FAA1F1B1FA81F18B401A4328
:1010F800A36A5B08591E4FF4403393FAA3F3B3FA7B
:1011080083F301FA03F31A43E16A4FF0706393FA29
:10111800A3F3B3FA83F301FA03F31A434FF46053CA
:10112800C4F202035A606023C4F2472301221A6002
:10113800FFF706FB044604E0FFF702FB001B02284A
:1011480037D84FF46053C4F202031B6813F0007FD2
:10115800F2D0002030E06023C4F2472300221A6056
:10116800FFF7EEFA044604E0FFF7EAFA001B02284C
:1011780021D84FF46053C4F202031B6813F0007FB8
:10118800F2D1002018E0012016E0032014E003202B
:1011980012E0032010E003200EE003200CE00320FF
:1011A8000AE0032008E0032006E0032004E003200F
:1011B80002E0032000E0032003B030BD4FF4605389
:1011C800C4F202039B6803F00C03042B02D0082B23
:1011D80005D03DE04FF49050C0F27A0070474FF4CC
:1011E8006053C4F20203586800F03F005B6813F4D0
:1011F800800F19BF4FF49053C0F27A034FF4105385
:10120800C0F2F403B3FBF0F04FF46053C4F20203EE
:101218005A6847F6C0731A4093FAA3F3B3FA83F3F4
:1012280022FA03F303FB00F04FF46053C4F2020305
:101238005A6802F440324FF4403393FAA3F3B3FAF6
:1012480083F322FA03F301335B00B0FBF3F070473A
:101258004FF41050C0F2F400704700BF70B5044658
:101268000D460368013B0E2B07D948F6A060C0F66F
:10127800000040F2372100F02BFC072D07D948F673
:10128800A060C0F600004FF40E7100F021FC4FF48E
:101298007053C4F202031B6803F00F03AB420BD276
:1012A800EAB24FF47053C4F202031A701B6803F0D9
:1012B8000F03AB4240F03481236813F0020F24D0AF
:1012C800A368002B18BF802B15D0902B13D0A02B10
:1012D80011D0B02B0FD0C02B0DD0D02B0BD0E02BC2
:1012E80009D0F02B07D048F6A060C0F6000040F205
:1012F8004F2100F0EDFB4FF46053C4F202039968EC
:1013080021F0F001A2680A439A60236813F0010FE4
:1013180000F088806368032B07D948F6A060C0F600
:10132800000040F2562100F0D3FB6368012B08D17E
:101338004FF46052C4F20202126812F4003F15D151
:10134800F0E09A1E012A08D84FF46052C4F2020253
:10135800126812F0007F09D1E6E04FF46052C4F23F
:101368000202126812F0020F00F0E0804FF460529F
:10137800C4F20202916821F003010B439360FFF766
:10138800DFF906466368012B12D107E0FFF7D8F9A9
:10139800801B41F28833984200F2CA804FF46053B0
:1013A800C4F202039B6803F00C03042BEED139E06E
:1013B800022B12D107E0FFF7C3F9801B41F28833F3
:1013C800984200F2B7804FF46053C4F202039B685E
:1013D80003F00C03082BEED124E0032B1AD107E00D
:1013E800FFF7AEF9801B41F28833984200F2A480DF
:1013F8004FF46053C4F202039B6803F00C030C2BF8
:10140800EED10FE0FFF79CF9801B41F28833984238
:1014180000F294804FF46053C4F202039B6813F007
:101428000C0FEFD14FF47053C4F202031B6803F0A2
:101438000F03AB420AD9EAB24FF47053C4F2020365
:101448001A701B6803F00F03AB4279D1236813F0BD
:10145800040F20D0E368002B18BFB3F5805F10D0CD
:10146800B3F5A05F0DD0B3F5C05F0AD0B3F5E05F68
:1014780007D048F6A060C0F600004FF42D7100F0C8
:1014880027FB4FF46053C4F20203996821F4E0513A
:10149800E2680A439A60236813F0080F21D0236991
:1014A800002B18BFB3F5805F10D0B3F5A05F0DD047
:1014B800B3F5C05F0AD0B3F5E05F07D048F6A06087
:1014C800C0F6000040F2BB2100F002FB4FF460536D
:1014D800C4F202039A6822F46042216942EAC10216
:1014E8009A60FFF76BFE4FF46053C4F202039A68E8
:1014F80002F0F002F02393FAA3F3B3FA83F3DA408D
:1015080048F69063C0F600039B5CD84040F20403A1
:10151800C2F2000318600F20FFF7D6F8002070BD54
:10152800012070BD012070BD012070BD012070BD7B
:10153800032070BD032070BD032070BD032070BD63
:10154800012070BD40F20403C2F20003186870471E
:1015580008B548F6D060C0F6000000F0E3FA0120B4
:1015680000F06CF808B540F29453C2F200031B680F
:1015780043B940F29453C2F2000340F28072C2F2BF
:1015880000021A6040F29453C2F200031A68033052
:1015980020F0030010444FF60043C2F201039842C2
:1015A80006D900F0DBFC0C2303604FF0FF3008BDC8
:1015B80040F29453C2F200031860104608BD00BF01
:1015C80030B50025132420462946ABBE04462046E4
:1015D80030BD00BF38B5044600F0C0FC0546FFF733
:1015E800EFFF2860204638BD08B5B0F1FF3F01D1B4
:1015F800FFF7F0FF08BD00BF10B5044640F20C032A
:10160800C2F20003186818B183690BB900F0DAFC5C
:10161800132C0FD840F2F453C2F2000353F83430BD
:10162800B3F1FF3F08D040F2F450C2F2000000EBE3
:10163800C40010BD002010BD002010BD00B526223A
:10164800C0F202022323C0F2020300280CBF154691
:101658001D46182420462946ABBE0446FEE700BFB7
:1016680070B584B048F6E464C0F60004019403231E
:1016780003930023029301AE012528463146ABBEF1
:10168800054640F2EC53C2F200031D6001940323A7
:101698000393042302930DEB0306012528463146E4
:1016A800ABBE054640F29853C2F200031D60019498
:1016B800032303930823029301AD012420462946FE
:1016C800ABBE044640F2F053C2F200031C60B4F112
:1016D800FF3F09D140F2F053C2F2000340F29852A2
:1016E800C2F2000212681A60002308E040F2F452C5
:1016F800C2F200024FF0FF3142F833100133132BCE
:10170800F4DD40F2F453C2F2000340F2EC52C2F2AC
:10171800000212681A6000225A6040F29851C2F220
:10172800000109689960DA6040F2F051C2F20001E4
:10173800096819615A6104B070BD00BF2DE9F04114
:1017480082B080460F4640F29C53C2F200030093D9
:101758004F2301936D46152420462946ABBE044607
:101768000025002C4FD140F29C53C2F20003002503
:1017780083F84F50009A28462E463FE016BB40F2A9
:101788000804C2F200042168194491F90140002CB0
:10179800B8BF012104DB092B14BF00210121FFE799
:1017A80059BB082D2FDC272B18BF222B04BF013271
:1017B800184640F29463C2F2000343F8252001352D
:1017C80001261AE028B1834202BF0026167030466F
:1017D80013E040F20801C2F200010968194491F9C6
:1017E80001100029B8BF012304DB092B14BF002313
:1017F8000123FFE70BB100261670013292F9003081
:10180800002BBBD1FFE75DB940F29C53C2F2000345
:1018180000221A7040F29462C2F20002136001358D
:1018280040F29463C2F20003002243F82520C8F86E
:1018380000503B60FFF714FF02B0BDE8F08100BF25
:1018480030B585B001900291039201AD062420467F
:101858002946ABBE04462046FFF7C6FE05B030BD9C
:1018680070B50E461546FFF7C7FE044630B900F0BE
:1018780075FB092303604FF0FF3070BD00683146E7
:101888002A46FFF7DDFFB0F1FF3F1FBFC0EB0500A1
:1018980063681B18636070BDF0B583B00C461546CD
:1018A800FFF7AAFE064630B900F058FB092303608B
:1018B8004FF0FF304DE0022D06D900F04FFB162304
:1018C80003604FF0FF3044E0012D17D14368E4185E
:1018D80058BF002512D500F041FB1623036073683A
:1018E800002B2EDD002CD8BF4FF0FF3031DD00F08B
:1018F80035FB8B2303604FF0FF302AE0022D0FD118
:10190800336802AD45F8083D0C2738462946ABBE7A
:1019180005462846FFF768FEB0F1FF3F14D004449F
:101928003368009301946F460A2528463946ABBEB2
:1019380005462846FFF758FE002808DB7460204655
:1019480007E04FF0FF3004E04FF0FF3001E04FF0C8
:10195800FF3003B0F0BD00BF08B5FFF79DFF08BD1D
:1019680030B585B001900291039201AD052420465F
:101978002946ABBE04462046FFF736FE05B030BD0B
:1019880070B50E461446FFF737FE054630B900F02D
:10199800E5FA092303604FF0FF3070BD0068314657
:1019A8002246FFF7DDFF031E09DBE01A6A680244DE
:1019B8006A609C4205D10020FFF70CFE70BD4FF015
:1019C800FF3070BD30B583B002AC44F8040D022579
:1019D80028462146ABBE04462046FFF705FE03B065
:1019E80030BD00BF38B50546FFF706FE044630B9DE
:1019F80000F0B4FA092303604FF0FF3038BD013D11
:101A0800012D0CD840F2F453C2F200039A681B6906
:101A18009A4204D14FF0FF330360002038BD20689C
:101A2800FFF7D0FF034610B94FF0FF322260184687
:101A380038BD00BF70B50C46FFF7DEFD054630B96E
:101A480000F08CFA092303604FF0FF3070BD636823
:101A580043F4005363604FF48063E3620C2630461E
:101A68002946ABBE05462846FFF7BEFDB0F1FF3F4D
:101A78001ABF206100204FF0FF3070BD38B5054611
:101A88000C46084600213C2200F0F2FE284621467A
:101A9800FFF7D0FF38BD00BF38B5FFF7ADFD0446EE
:101AA80028B900F05BFA09230360002038BD092536
:101AB80028462146ABBE0446012C07D000F04EFA5A
:101AC8000446FFF77DFD2060002038BD012038BDA9
:101AD80008B503460A4648F63070C0F600001946B5
:101AE80000F002F8FFF734FD0FB400B583B004AB83
:101AF80053F8042B019340F2BC60C2F2000080212D
:101B080001F0C4F9011E06DD40F2BC60C2F200001B
:101B180000F06EF80146084603B05DF804EB04B027
:101B2800704700BF10B5044601F0A8F801462046EA
:101B380000F05EF849F22000C0F60000012100F034
:101B480057F810BD70B505460E4648F65C70C0F6ED
:101B580000002946FFF7C8FF00240FE02CB148F623
:101B68007470C0F60000FFF7BFFF48F67870C0F643
:101B7800000056F82410FFF7B7FF0134AC42EDDB44
:101B880048F68070C0F60000FFF7AEFF70BD00BFDA
:101B98002DE9F04385B004468846435C0F460BBBED
:101BA800042528462146ABBE04461DE0102F34BF4D
:101BB8003E461026002306E014F8015B04AA1A44E6
:101BC80002F8105C0133B342F6D304AA134400228E
:101BD80003F8102CE946042528464946ABBE0546BD
:101BE800BF1BFFE7002FE1D1404605B0BDE8F083F9
:101BF80008B5FFF7CDFF08BD08B500F017F940F2AA
:101C08000002C0F600024FF46D43CEF200039A6062
:101C180008BD00BFF8B504460D4617461E4648F6EF
:101C28008870C0F60000FFF75FFF48F69870C0F6AE
:101C380000002168FFF758FF48F6A870C0F60000BA
:101C48006168FFF751FF48F6B870C0F60000A16858
:101C5800FFF74AFF48F6C870C0F60000E168FFF7D2
:101C680043FF48F6D870C0F600002169FFF73CFF33
:101C780048F6E870C0F600006169FFF735FF48F6DE
:101C8800F870C0F60000A169FFF72EFF49F20800BE
:101C9800C0F60000E169FFF727FF49F21800C0F617
:101CA8000000FFF721FF49F22400C0F60000294692
:101CB800FFF71AFF4FF46D44CEF20004E16A49F2CF
:101CC8003400C0F60000FFF70FFF216B49F2440013
:101CD800C0F60000FFF708FFE16B49F25400C0F6B8
:101CE8000000FFF701FF15F0800F06D049F26400ED
:101CF800C0F600003946FFF7F7FE15F4004F06D08E
:101D080049F27400C0F600003146FFF7EDFE49F2D3
:101D18008400C0F60000FFF7E7FE49F28C00C0F629
:101D280000000699FFF7E0FEF8BD00BF38B504468D
:101D380083691B888B4274D103684568013B302B4B
:101D480071D8DFE803F0471D6969622C2F2919193A
:101D580070191919191932192070192370357070F2
:101D6800707070707070707070707070707070706B
:101D780070707070701919004FF0FF3303604BE0FA
:101D88000023036048E00023036045E000232B6044
:101D98006B60AB60EB603FE0002303603CE0AB6846
:101DA800036039E00023036036E00023036033E07A
:101DB800BFF34F8F4FF46D42CEF20002D16801F4A9
:101DC800E0610423C0F2FA530B43D360BFF34F8F93
:101DD80000BFFDE7286848F6E461C0F6000100F09E
:101DE8002FFE70B96B6813B90123236014E0042B2C
:101DF80004BF022323600FD0082B04BF03232360F2
:101E08000AD04FF0FF33236006E02B68023B012B1A
:101E180094BF0023AB680360A3690233A361012068
:101E280038BD002038BD002038BD00BF4FF46053D6
:101E3800C4F202031A6842F001021A6000229A6092
:101E4800196821F0847121F48031196043F210017E
:101E5800C2F200415960196821F480211960DA60E2
:101E68004FF46D43CEF200034FF000629A60704762
:101E78004FF46053C4F202039B6803F00C03042B75
:101E88000DD0082B15D0002B42D140F20403C2F22A
:101E980000034FF41052C0F2F4021A6041E040F21D
:101EA8000403C2F200034FF49052C0F27A021A609F
:101EB80037E04FF46053C4F2020359685B6803F0DB
:101EC8003F0311F4800F19BF4FF49052C0F27A0209
:101ED8004FF41052C0F2F402B2FBF3F34FF4605126
:101EE800C4F202014A68C2F3881202FB03F24FF4FB
:101EF8006053C4F202035B68C3F3014301335B0020
:101F0800B2FBF3F240F20403C2F200031A6008E0E5
:101F180040F20403C2F200034FF41052C0F2F4027C
:101F28001A604FF46053C4F202039A68C2F30312B2
:101F380049F2D003C0F60003995C40F20403C2F2F0
:101F480000031A68CA401A60704700BF00210A22BD
:101F580000F062BF00220A2300F0C0BE40F20C036A
:101F6800C2F20003186870470020704700207047CD
:101F780042F6BD71C0F6000100F01AB970B54B1EEB
:101F880068250E4605FB03F505F1740100F0B8F964
:101F9800044640B100210C30666005F168022160FA
:101FA800A06000F065FC204670BD00BF49F24423E4
:101FB80042F6BD71C0F60003C0F60001186800F0D3
:101FC800F7B800BF2DE9F84F05468369002B40F0AC
:101FD800898049F2442141F67972C0F60001C0F8BF
:101FE800D830C0F8DC30C0F6000209680024C0F818
:101FF800E03004278842826204BF0123836100F035
:1020080073F842F6C11B42F6E91A42F6212942F654
:102018004128C0F6000BC0F6000AC0F60009C0F659
:1020280000086860284600F05FF8A860284600F0BD
:102038005BF86E6821460822E86006F15C00B7810B
:1020480034607460B4607466F48134617461B4613E
:1020580000F00EFCAF684FF001033662C6F824B0FA
:102068004FF0090EC6F828A02146C6F82C90082281
:10207800C6F8308007F15C00FB81A7F80CE03C60F3
:102088007C60BC607C663C617C61BC6100F0F0FBFC
:10209800EE684FF0120CC7F824B0C7F828A04FF02C
:1020A800020EC7F82C902146C7F8308006F15C0074
:1020B8003F62082234607460B4607466346174618D
:1020C800B461A6F80CC0A6F80EE000F0D1FBC6F883
:1020D80024B0C6F828A00123C6F82C90C6F8308092
:1020E8003662AB61BDE8F88F49F24423C0F60003BD
:1020F80070B506461D68AB69002B2AD0D8356B68C9
:10210800AC68013B04D520E0013B68345A1C1CD064
:10211800B4F90C20002AF7D1002501234FF6FF76E9
:10212800656629462560A56004F15C0065600822A3
:1021380025616561A561E681A38100F099FB2046D0
:102148006563A563A564E56470BD2B682BB11D4666
:10215800D5E72846FFF736FFD0E730460421FFF7DA
:102168000DFF286008B10546C9E70C22326070BD32
:10217800704700BF704700BF704700BF704700BF7F
:1021880040F20C0341F67171C2F20003C0F600017F
:10219800186800F00DB800BF40F20C0341F67571E5
:1021A800C2F20003C0F60001186800F001B800BFD1
:1021B8002DE9F04110F1D806884619D00027756836
:1021C800B468013D0ED4A389013D012B06D9B4F9A9
:1021D8000E302046013301D0C04707436B1C04F181
:1021E8006804F0D13668002EE9D13846BDE8F081A0
:1021F80037463846BDE8F0812DE9F84310F1D80696
:10220800804689461AD000277568B468013D0FD406
:10221800A389013D012B07D9B4F90E302146404668
:10222800013301D0C84707436A1C04F16804EFD1A1
:102238003668002EE8D13846BDE8F8833746384678
:10224800BDE8F8832DE9F043994687B0904602FB34
:1022580009F601AB01910746039301230E9C0493F1
:102268000296059610B18369002B33D049F22425D4
:10227800C0F60005AC4208BF7C680ED049F20425C0
:10228800C0F60005AC4208BFBC6806D049F2E415A8
:10229800C0F60005AC4208BFFC68A2893846214652
:1022A80093045EBF42F40052A281636E03AA5CBF2E
:1022B80023F40053636601F08FF838B1059841465E
:1022C800301A05F04DFC07B0BDE8F083484607B06A
:1022D800BDE8F083FFF776FEC8E700BF70B540F2AF
:1022E8000C0482B0C2F200040E4615460146009363
:1022F800206832462B46FFF7A5FF02B070BD00BF2D
:102308002DE9F04F01F10B04162C83B08EBF24F099
:10231800070400231024074688BFE30F8C422CBF14
:10232800194643F00101002940F0BA8000F0F0FAA4
:10233800B4F5FC7F20D240F200164FEAD40CC2F26A
:10234800000606EBCC02D368934200F0F781596887
:1023580003F10808DA68384621F003049968234431
:102368005C68CA6044F0010491605C6000F0D2FAD5
:10237800404603B0BDE8F08F5FEA542C04BF7E25C9
:102388004FF03F0C40F0948040F20016C2F2000675
:1023980006EB8505EB689D4206D10DE0002A80F228
:1023A8006481DB689D4207D0596821F003010A1B4C
:1023B8000F2AF3DD0CF1FF3C0CF1010C40F2001286
:1023C8003369C2F2000202F1080E734508BF516872
:1023D80023D0586820F00300011B0F2900F39281D5
:1023E8000029C2F814E0C2F810E06CDAB0F5007FFA
:1023F80080F06181C0084FF00108516802EBC00508
:10240800801008FA00F848EA0108A8684146DD602B
:10241800C2F804809860AB60C36001224FEAAC0345
:1024280002FA03F38B425CD819420BD193402CF08B
:10243800030C19420CF1040C04D15B000CF1040CE0
:102448001942FAD006EBCC08E1464046C2689042F1
:1024580007D16BE1002980F27B81D268904200F0BD
:102468006581556825F00305291B0F29F2DD904683
:10247800D5683846131958F8087F44F0010C41F024
:102488000104C2F804C0FD60AF6073613361C3F832
:102498000CE0C3F808E05C60595000F03BFA67E7CD
:1024A8004FF000080C230360404603B0BDE8F08FEE
:1024B800BCF1040F00F2EB804FEA941C0CF1380CCD
:1024C8004FEA4C0560E71A1803F1080838465368C4
:1024D80043F00103536000F01DFA404603B0BDE825
:1024E800F08FB5686B6823F0030A544504D8C4EB31
:1024F8000A030F2B00F3A88040F23C79D6F80814A1
:10250800C2F200093846013105EB0A02D9F8003059
:102518000192234417BF03F5805303F1100B0F33C7
:1025280023F47F6318BF23F00F0B594600F030FAED
:10253800019AB0F1FF3F804600F02081824200F20C
:102548001A81D9F8043042455B44C9F8043000F0D8
:102558006581D6F8081440F20010C2F2000001317B
:1025680017BFC2EB0802C0F808849B18C9F80430EA
:1025780018F0070338461FBFC3F10802C3F580539C
:10258800904403F1080208EB0B0308BF4FF4805294
:10259800C3F30B03C3EB020B594600F0F9F940F201
:1025A8003C72C6F80880C2F20002431CD9F8043015
:1025B80015BFC8EB0001012159444FF0000B18BFAB
:1025C80041F00101B5425B44C8F80410C9F8043071
:1025D80018D0BAF10F0F40F20081AAF10C00696817
:1025E80020F007004FF0050C05EB000E0F2801F056
:1025F800010140EA01016960CEF804C0CEF808C0C4
:1026080000F2188140F23C72D9F82C10C2F2000294
:10261800B5688B42D9F8301088BFD36240F23C725B
:10262800C2F200028B4288BF13636A6822F0030279
:102638009442C4EB020301D80F2B05DC38464FF057
:10264800000800F067F993E62A1943F001033846B9
:1026580044F001046C6005F10808B260536000F0B2
:1026680059F9404603B0BDE8F08F1944DA689C6810
:1026780038464D6803F10808E26045F001059460AA
:102688004D6000F047F9404603B0BDE8F08FBCF15B
:10269800140F9CBF0CF15B0C4FEA4C057FF674AE2F
:1026A800BCF1540F00F28F804FEA143C0CF16E0C11
:1026B8004FEA4C0568E6420A042A58D9142A9CBFF6
:1026C80002F15B014D0005D9542A00F2BC80010BD0
:1026D8006E314D0006EB850540F20018C2F2000885
:1026E800AA68AA427FD0516821F00301884202D229
:1026F80092689542F7D1D0687168D8609A60836013
:10270800D3608AE61D1941F0010644F001043846F9
:102718005C6003F1080855611561C5F80CE0C5F85F
:1027280008E06E60695000F0F5F821E609F101094A
:10273800083019F0030F7FF489AE28E003F108028E
:102748005B699A4208BF0CF1020C3FF437AEFEE514
:1027580090461544D368384658F8082F696841F000
:1027680001016960D3609A6000F0D4F800E681093D
:1027780038314D00AEE7B5423FF4E3AEB5686A685C
:1027880022F0030254E7D8F8008090456DD11CF080
:10279800030FA8F108020CF1FF3CF4D1726822EA99
:1027A800030272605B0093423FF69BAE002B3FF43E
:1027B80098AE1A42CC467FF445AE5B000CF1040C8F
:1027C8001A42FAD03EE6BCF5AA7F18D84FEAD43CA4
:1027D8000CF1770C4FEA4C05D6E501234546C8F8BD
:1027E8000430002224E74FF001098D10D8F80410B6
:1027F800104609FA05F52943C8F804107DE740F2A8
:1028080054539C4595BF4FEA944CFC250CF17C0C25
:102818004FF07E0C98BF4FEA4C05B5E5C2F30B01AB
:1028280000297FF496AEB2680BEB0A0141F0010172
:102838005160E7E605F108013846019200F000FD15
:10284800019A5368DEE6B2F5AA7F03D8C10B773147
:102858004D003FE740F254518A4295BF810CFC2558
:102868007C317E2198BF4D0034E772689AE700BF3B
:102878008307F0B448D0541E002A43D0CDB2034693
:1028880002E0002C3ED0144603F8015B13F0030F5E
:1028980004F1FF32F5D1032C2DD9CDB20F2C45EA26
:1028A800052545EA054518D9A4F1100703F11006D6
:1028B8001A463F0906EB07161560103242F80C5C01
:1028C80042F8085C42F8045CB242F5D104F00F0407
:1028D8000137032C03EB07130DD91E462246043A91
:1028E80046F8045B032AFAD8221F04F0030422F0F6
:1028F8000302043213442CB1C9B21C4403F8011B6F
:10290800A342FBD1F0BC704714460346C3E700BF9F
:10291800704700BF704700BF30B5044689B008460D
:102928000D4600F0ABF949F220030122C0F600037E
:102938000495069304AB0792019302230293059032
:10294800013003900CB1A369B3B1A16820468B890B
:102958009A045FBF43F400538B814A6E22F40052FD
:1029680058BF4A6601AA00F037FD00280CBF0A20AC
:102978004FF0FF3009B030BD2046FFF723FBE4E7F6
:1029880040F20C030146C2F200031868FFF7C4BF07
:1029980038B540F27874C2F20004054608460023B0
:1029A8002360FEF7DFFD431C00D038BD2368002BF1
:1029B800FBD02B6038BD00BF10B50C46B1F90E1026
:1029C80000F09EFF0028ABBF636DA3891B1823F49A
:1029D8008053ACBF6365A38110BD00BF0020704762
:1029E8002DE9F0410C4689891D4616460746CB0558
:1029F80006D5B4F90E100022022300F067FEA18963
:102A080021F480513846A1813246B4F90E102B4684
:102A1800BDE8F04100F04CBA10B50C46B1F90E1003
:102A280000F054FEA389421C16BF606523F480534E
:102A380043F48053A38110BDB1F90E1000F04EBAD3
:102A480040EA010C1CF0070F27D1BDF1100DCDE9AC
:102A58000245CDE900676FF000064FF0000700BFA0
:102A6800F0E80223F1E80245A242A2F1013C2CEA77
:102A7800020C0CF0803C08BFBCF1000F40F0E58070
:102A8800AB42A3F1013C2CEA030C0CF0803C08BFDC
:102A9800BCF1000F40F0D680E2E710F0030C21D023
:102AA80020F0030050F8042B5FEACC7C08D00FD24A
:102AB80011F801CB5FFA92F3B3EB0C0C10D17BB198
:102AC80011F801CB5FFAA2F3B3EB0C0C08D13BB1C0
:102AD80011F801CB5FFAB2F3B3EB0C0C00D10BB9D0
:102AE80060467047BDF1100DCDE90245CDE900679C
:102AF8006FF000064FF0000711F0030C33D110F00F
:102B0800040F0FD050F8042B51F8044BA242A2F145
:102B1800013C2CEA020C0CF0803C08BFBCF1000F11
:102B280040F0938011F0040F99D051F8045B00BF76
:102B3800F0E80223AA42A2F1013C2CEA020C0CF0B4
:102B4800803C08BFBCF1000F79D1F1E80245A342EF
:102B5800A3F1013C2CEA030C0CF0803C08BFBCF14B
:102B6800000F69D1E4E721F00301BCF1020F20D086
:102B78003FDA51F8045B00BF50F8043B4FEA1525D3
:102B8800A3F1013C2CEA030C0CF0803CB7EB0C2FB2
:102B980003EA162208BFAA4251D151F8045BBCF1DE
:102BA800000F82EA03034FEA056208BF934240D14F
:102BB800E2E751F8045B00BF50F8043B4FEA1545C3
:102BC800A3F1013C2CEA030C0CF0803CB7EB0C4F52
:102BD80003EA164208BFAA4231D151F8045BBCF19E
:102BE800000F82EA03034FEA054208BF934220D14F
:102BF800E2E751F8045B00BF50F8043B4FEA156563
:102C0800A3F1013C2CEA030C0CF0803CB7EB0C6FF1
:102C180003EA166208BFAA4211D151F8045BBCF15D
:102C2800000F82EA03034FEA052208BF934200D14E
:102C3800E2E719BA12BA0AE019BA22BA07E011BAD9
:102C48002ABA04E019BA2ABA01E011BA22BA9CFADF
:102C58008CF0DDE90067DDE902451DF1100D38B1A2
:102C6800B0FA80F0C0F1180021FA00F122FA00F25F
:102C78000120914298BF8041704700BF20F00301B6
:102C880010F00300C0F1000051F8043B00F1040CFF
:102C98004FEACC0C6FF000021CBF22FA0CF213436F
:102CA8004FF0010C4CEA0C2C4CEA0C4CA3EB0C0238
:102CB80022EA030212EACC1204BF51F8043B0430A2
:102CC800F4D013F0FF0F1FBF013013F47F4F013012
:102CD80013F47F0F18BF0130704700BF2DE9F04F84
:102CE80040F2080485B0C2F200048C46994603906D
:102CF8000846D4F8008000E02046044614F8015B3A
:102D080008EB0503597801F0080101F0FF030029D9
:102D1800F2D12D2D76D02B2D04BF841C457839F0A7
:102D2800100112D1D9F1010138BF0021302D04D092
:102D380059B14FF00A09CB4608E0207800F0DF00CF
:102D4800582863D009B14FF00809CB46002B5946E3
:102D58000CBF6FF000464FF00046009230460293D9
:102D6800CDF804C005F02AF8002730468A465946AF
:102D780004F0F6FE3946029B9DE804100CE0554528
:102D8800D4BF00260126814218BF0026EEB90BFBEE
:102D98000151012714F8015B08EB0506767816F057
:102DA800040F18BF303D07D116F0030610D0012ECE
:102DB80014BF57263726AD1BA94509DD814294BFAC
:102DC8000026012656EAD777D9D04FF0FF37E1E73A
:102DD800781C08D0A3B9084612B17FB964461460BC
:102DE80005B0BDE8F08F0399002B0CBF6FF00040D1
:102DF8004FF0004022230B60002AF1D0013CEEE79F
:102E08004942E8E7841C4578012388E74FF0100918
:102E18006578CB46023499E730B440F20C04C2F22C
:102E280000040D46134601462A46206830BCFFF7C9
:102E380055BF00BFF0B5141E0646B8BF8B239BB024
:102E4800BCBF4FF0FF3033601DDB00914FF40272BE
:102E580004913046ADF80C2069461A46209B14BFF1
:102E680004F1FF3525464FF6FF7702950595ADF835
:102E78000E7000F051FF431CBCBF8B22326014B1AE
:102E8800009A002313701BB0F0BD00BF70B540F26C
:102E98000C0482B0C2F200040E46154601460093A7
:102EA800206832462B46FFF7C5FF02B070BD00BF51
:102EB80038B540F27874C2F2000405460846114657
:102EC8001A4600232360FEF75BFD431C00D038BD83
:102ED8002368002BFBD02B6038BD00BF38B540F20B
:102EE8007874C2F200040546084600232360FEF702
:102EF80079FD431C00D038BD2368002BFBD02B6024
:102F080038BD00BF70B50C460546E9B110B18369FC
:102F1800002B47D049F22423C0F600039C4208BF87
:102F28006C680ED049F20423C0F600039C4208BF27
:102F3800AC6806D049F2E413C0F600039C4208BF0F
:102F4800EC68B4F90C300BB9002070BD2846214656
:102F580000F0E0F8236B06463BB12846216A984703
:102F680036EA200628BF4FF0FF36A3891B061CD47B
:102F7800616B41B104F14403994202D0284600F044
:102F88005FF900236363A16C21B1284600F058F96A
:102F98000023A364FFF7ECF80023A381FFF7EAF806
:102FA800304670BDFFF70EF8B4E72846216900F0F7
:102FB80047F9DDE740F20C030146C2F20003186846
:102FC800FFF7A0BF8B892DE9F0411A070D4680460F
:102FD8003CD44A6843F400638B81002A5BDDEC6AC9
:102FE800002C4DD09BB2D8F8007003F48056002214
:102FF800C8F80020B6B2002E51D06A6D5E0705D51C
:1030080069686B6B521A0BB12B6CD21A4046296A4D
:103018000023A047441C4DD0AB8900212A6923F422
:10302800006369609BB22A60DA04AB814FD4696B94
:10303800C8F8007021B305F14403994202D0404614
:1030480000F0FEF800206863BDE8F0810E69BEB1AB
:103058000C680E60990718BF0023C6EB040408BF6C
:103068006B69AB600AE032462346AF6A4046296A7C
:10307800B8470028C0EB0404064404DD002CF2DC49
:103088000020BDE8F081AB894FF0FF3043F04003EA
:10309800AB81BDE8F0810A6C002AA0DCF0E732467B
:1030A80001234046296AA047431C02461ED0AB892B
:1030B800EC6AA3E7D8F800305BB9A9892A6921F43A
:1030C80000616B608BB2AB81DB042A60AFD56865A9
:1030D800ADE71D2B01D0162B15D12B690021AA892C
:1030E800696022F400622B60AA81A0E7D8F800305A
:1030F800002BDCD01D2B18BF162BC4D1C8F80070CC
:103108003046BDE8F081AB8943F04003AB81BDE8B0
:10311800F08100BF0B6910B5044682B0E3B108B175
:10312800836913B349F22423C0F60003994208BF08
:1031380061680ED049F20423C0F60003994208BF23
:10314800A16806D049F2E413C0F60003994208BF0B
:10315800E168B1F90C3013B9002002B010BD204667
:1031680002B0BDE81040FFF72DBF0191FEF72AFF1E
:103178000199D7E738B140F20C030146C2F20003C7
:103188001868FFF7C7BF49F2442343F21D11C0F680
:103198000003C0F600011868FFF72EB8F8B540F232
:1031A8000014C2F200040F460546FFF7B1FBA368FE
:1031B8005E6826F00306F71B07F6EF773F0B013F23
:1031C8003F03B7F5805F07DB28460021FFF7E0FBE8
:1031D800A3683344984204D02846FFF79BFB00209D
:1031E800F8BD28467942FFF7D3FB013010D040F2F2
:1031F8004073A168C2F20003F61B284646F0010698
:103208001A684E60D71B1F60FFF784FB0120F8BDCA
:1032180028460021FFF7BCFBA368C21A0F2ADBDD92
:1032280040F2085440F24071C2F20004C2F20001B8
:1032380042F001025A602368C01A0860CCE700BF58
:103248002DE9F0410E46804600295ED0FFF760FB6D
:1032580040F2001556F8041CC2F20005A6F1080455
:1032680021F00103AF68E2189742506820F003008C
:1032780061D011F00101506018BF00210FD156F83C
:10328800086C05F1080CA41B3344A66866450FBFFB
:103298000121D4F80CC0C6F80CC0CCF80860161888
:1032A8007668F60708D40344906811B9494EB042CD
:1032B80060D0D268C260906043F001026260E3505F
:1032C800F1B9B3F5007F22D35A0A042A5BD89809CA
:1032D8003830410005EB810540F20011C2F20001CF
:1032E800AA68AA425BD0516821F003018B4202D23E
:1032F80092689542F7D1D368E360A2609C60D4607D
:103308004046BDE8F041FFF705BBBDE8F081DB08AA
:103318000121686805EBC3029B1001FA03F3916869
:103328001843E26068604046A1609460CC60BDE8E4
:10333800F041FFF7EFBACF07184407D456F8083C16
:10334800E41A1844A268E368D3609A6040F20C5209
:1033580040F00103C2F200026360AC601368984257
:10336800CED340F23C734046C2F200031968FFF71F
:1033780015FFC5E76C6143F001022C61E060A060B5
:103388006260E350BCE7142A9CBF02F15B00410075
:10339800A0D9542A0CD8180B6E3041009AE70126A0
:1033A8004D688010134606FA00F005434D60A3E708
:1033B800B2F5AA7F03D8D80B773041008AE740F2EC
:1033C80054518A4295BF980CFC217C307E2098BFCE
:1033D80041007FE70801002093682DE9F04F164669
:1033E80083B081460C46002B5ED08B8919075FD5C8
:1033F8002269002A5CD003F002024FF0000A356807
:10340800D04692B2002A37D113F0010A6FD1D046C4
:10341800B8F1000F25D09A05A76840F1A280B845F9
:10342800C0F0CA8013F4906F40F0E8802068BB4673
:103438000197474651465A4600F0FAF9A1682268B2
:10344800434601985A442260091AA160B2689A4416
:10345800C3EB0808D71BB76037B3A389B8F1000FCF
:10346800D9D1D5F800A0083555F8048CD0E7D5F89F
:1034780000A0083555F8048CB8F5806F34BF434672
:103488004FF4806352464846B8F1000FEFD0216AE6
:10349800A76AB84700288244C0EB08081EDDB36855
:1034A800181AB0600028E7D1002003B0BDE8F08FFB
:1034B8004846214601F08AFE002840F0FF80A38993
:1034C80099E751463A4600F0B3F923684846214641
:1034D8003B442360FFF71EFE002852D0A38943F027
:1034E80040034FF0FF30A38103B0BDE8F08F924650
:1034F800934690460192B8F1000F2AD0019F002F01
:103508006ED02068C24534BF5346434621691F46E2
:10351800D4F808C08842626903D99444634500F32B
:103528009F8093422FDB1346A76A4846216A5A4672
:10353800B847071ED2DDBAEB070A34D0B368BB44DC
:10354800C7EB0808DF1BB760002FADD0B8F1000F3C
:10355800D4D1D5F800B00027D5F8048008350197F4
:10356800C9E720682369984201D9B845A9D8636991
:10357800984527D3A76A4846216A5246B847071E86
:10358800ACDD3B4662E71A465946009300F050F915
:10359800009BBAEB070AA1682268C3EB0101A1608E
:1035A80013442360CAD148462146FFF7B3FD0028DB
:1035B80094D1CDF804A0C1E720684746CDF804802F
:1035C800C34637E75146424600F032F9A1682268FF
:1035D8004746C8EB010143464244A160226035E7F3
:1035E80058460A21424600F087F8002861D000F1C9
:1035F800010A0127CBEB0A0A019782E7676922686B
:10360800216907EB4707C1EB020B07EBD7770BF1F3
:10361800010242447F10974234BF17463A465B0581
:1036280034D511464846FEF76BFE002849D021697B
:103638005A46009000F0A8F8A289009B22F49062F4
:1036480042F08002A28103EB0B0023616761CBEBA0
:10365800070320604746A360C346CDF80480E9E627
:1036680062465946CDF800C000F0E2F8DDF800C027
:1036780048462368214663442360FFF74BFDDDF885
:1036880000C000287FF42AAF674654E7484600F098
:103698004DF903460028D6D148462169FFF7D0FDE9
:1036A800A3890C22C9F8002023F080031B041B0CFB
:1036B80015E7012708F1010A019722E74FF0FF30CB
:1036C800F3E60C22A389C9F8002008E738B540F2D0
:1036D8007874C2F200040546084611461A460023CB
:1036E8002360FEF739F9431C00D038BD2368002B4E
:1036F800FBD02B6038BD00BF8307C9B270B43FD080
:10370800541E2AB303788B4223D0431C04E0FCB137
:10371800057814468D421CD013F0030F184604F1A7
:10372800FF3203F10103F2D1032C14D8651E4CB308
:1037380003788B420DD0421C002302E004788C42AF
:1037480007D0AB42104603F1010302F10102F5D1A3
:10375800002070BC704741EA0126034646EA064647
:103768001846043302687240A2F1013525EA0202C4
:1037780012F0803FDAD1043C1846032CF0D8D5E784
:103788001446D1E72046E4E70F2AF0B445D940EAC9
:1037980001039B0745D1A2F110070C4603463F09D8
:1037A80000EB0716103625681033103443F8105C08
:1037B80054F80C5C43F80C5C54F8085C43F8085C5B
:1037C80054F8045C43F8045CB342ECD17B1C02F06F
:1037D8000F0CBCF1030F4FEA03131944034422D919
:1037E8000E461D46644656F8047B043C032C45F8F7
:1037F800047BF8D8ACF1040402F0030224F00304BB
:1038080004342344214432B10A4411F8014B914253
:1038180003F8014BF9D1F0BC70470346002AF3D1F5
:10382800F9E70346F0E76246002AEDD1F3E700BF67
:103838008842F0B410D98C18A0420DD28518531EB6
:1038480042B121462A4611F8014D013B02F8014DCB
:103858005C1CF8D1F0BC70470F2A46D940EA010336
:103868009B0746D1A2F110070C4603463F0900EB1F
:103878000716103625681033103443F8105C54F8D6
:103888000C5C43F80C5C54F8085C43F8085C54F88A
:10389800045C43F8045CB342ECD17B1C02F00F0CCF
:1038A800BCF1030F4FEA03131944034423D90E460E
:1038B8001D46644656F8047B043C032C45F8047BFB
:1038C800F8D8ACF1040402F0030224F00304043431
:1038D80023442144002ABDD01A4411F8014B03F8AF
:1038E800014B9342F9D1F0BC70470346002AF3D14B
:1038F800B0E70346F0E76246002AEDD1AAE700BF29
:1039080038B540F27874C2F20004054608461146FC
:103918001A4600232360FDF7A3FF431C00D038BDDF
:103928002368002BFBD02B6038BD00BF2DE9F04F7A
:103938000C4683B090468146002900F04881FEF786
:10394800E7FF08F10B06162E54F804CC8DBF26F0BD
:10395800070610220023324688BFF30FA4F1080798
:103968002CF0030598BF1646464538BF43F00103BF
:10397800002B40F03281954216DBA0466046AB1B17
:103988000F2B00F2CC807B1900F0010C4CEA0505E6
:103998007D605A6842F001025A604846FEF7BAFF55
:1039A800404603B0BDE8F08F40F2001A7919C2F220
:1039B800000ADAF80800884200F01481D1F804E01F
:1039C8002EF0010B8B44DBF804B01BF0010F1CBF79
:1039D8009E46714656D01CF0010F40F0B38054F853
:1039E800083CC3EB070BDBF8043023F003032B443C
:1039F800002955D0814200F021819E4496454FDB35
:103A0800CB68D84689682A1F242ACB609960DBF8DE
:103A18000C3058F8081FCB60996000F26A81132AAD
:103A280098BF424623D923681B2A98BF0BF110027E
:103A3800CBF80830636898BF0834CBF80C3016D937
:103A4800A368242A14BF0BF118020BF12002CBF84B
:103A58001030E36818BF1034CBF8143001BF236965
:103A6800CBF818306369183408BFCBF81C302368CA
:103A780075465F46136063685360A3689360DBF81C
:103A880004007CE72EF0030E0EEB05039342A2DB45
:103A9800CA68A046896860461D46CA6091606EE79C
:103AA80093424FDBD846DBF80C102A1F58F8080F52
:103AB800242AC160886000F2B480132A98BF414666
:103AC80022D921681B2ACBF80810616898BF0834EE
:103AD800CBF80C1098BF0BF1100115D9A168242A56
:103AE800CBF81010E16818BF1034CBF8141011BFD0
:103AF8000BF1180122690BF12001CBF8182002BF45
:103B080062691834CBF81C2022681D465F460A609B
:103B180063684B60A3688B60DBF804002FE7B91972
:103B280000F0010CCA184CEA060643F001037E6057
:103B38004B6048465368083143F001035360FFF770
:103B48007FFB2AE741464846FEF7DAFB8046002815
:103B58003FF423AF54F8043CA0F1080123F001021C
:103B68003A44914200F0BD802A1F242A62D8132AC1
:103B78009CBF034622461FD923681B2A98BF04F11D
:103B8800080203606368436098BF00F1080313D913
:103B9800A368242A14BF04F1100204F118028360F8
:103BA800E368C36011BF00F11003216900F1180335
:103BB800016104BF61694161116819605168596008
:103BC80092689A6021464846FFF73AFBE5E61146B7
:103BD80003B0BDE8F04FFEF793BB0C230020C9F8F3
:103BE8000030DEE6436806F1100123F0030E0EEB09
:103BF80005038B42B8BF0146FFF6EDAE37449B1B69
:103C0800CAF8087043F001037B60484654F8043C46
:103C180003F001031E4344F8046CFEF77BFE2046C4
:103C2800BFE6214640461D465F46FFF701FEDBF82A
:103C38000400A4E62146FFF7FBFDC3E706F11001E7
:103C48000EEB030C8C45FFF62BAFD846DBF80C3097
:103C58002A1F58F8081F242ACB60996052D8132AC3
:103C680098BF434622D923681B2ACBF808306368DB
:103C780098BF0834CBF80C3098BF0BF1100315D956
:103C8800A368242ACBF81030E36818BF1034CBF8A7
:103C9800143011BF0BF1180322690BF12003CBF884
:103CA800182002BF62691834CBF81C2022681A60F9
:103CB80062685A60A2689A600BEB0603C6EB0C02B6
:103CC800CAF8083042F001025A604846DBF804306E
:103CD80003F001031E43CBF80460FEF71BFE4046C9
:103CE8005FE650F8042C1846A04622F003031D4452
:103CF80045E62146404675465F46FFF799FDDBF8E5
:103D080004003CE621464046CDF804C0FFF790FD8C
:103D1800DDF804C0D0E700BF2DE9F04FC9B09146E7
:103D280014930B910E9002F077FB00681A90FEF73F
:103D3800A5FF0B9CA3891D90180603D52369002BAA
:103D480001F0798049F24C2538ACC0F6000515958C
:103D58000DF1DF050895159D38AF099449F2AC249B
:103D680005F11006089D0023C0F60004119317946E
:103D78007C1B1B931C9319931E93129321942D93D0
:103D88002C932B9799F80030252B18BF002B00F0A7
:103D9800B38009F10102144601322378252B18BF9C
:103DA800002BF8D1B4EB09050FD02C9B2D9A0133C9
:103DB800C7F80090072B7D602A442C932D92D8BF1A
:103DC80008377FDC1298284412902378002B00F0E3
:103DD800818000238DF88F301A4613930A9304F1DB
:103DE800010963784FF0FF340C9409F10109A3F13C
:103DF8002001582900F20A84DFE811F08E03080434
:103E080008049503080408040804080408040804BE
:103E18009C03480308045D0035020804EF03F60319
:103E2800F603F603F603F603F603F603F603F603C2
:103E3800080408040804080408040804080408041A
:103E4800080408046E02900208049002080408049A
:103E580008040804CD0208040804D402080408046D
:103E6800080408040804550208040804BC030804EC
:103E780008040804080408040804080408040804DA
:103E88000804A803D7039002900290028703D7037F
:103E9800080408044C0308045E0324027003F002BB
:103EA8000804F70208048000080408042003139C8F
:103EB8001493644213940A9D45F004050A9599F8F1
:103EC800003092E70E982BAA0B9902F0FFFF40B939
:103ED80038AF77E72D9B23B10E982BAA0B9902F0E8
:103EE800F5FF0B9C1298A38913F0400F18BF4FF0F1
:103EF800FF3049B0BDE8F08F4C4666E70A9C169340
:103F0800A30640F1D981149D0123EA1D22F007027E
:103F180002F108041494D2E900454FF0000A8DF824
:103F28008FA00C9800280C98A2BF0A9921F0800154
:103F38000A9154EA05020CBF00220122002818BF8A
:103F480042F00102002A00F0E583012B00F0098508
:103F5800022B0DF1DF0240F05981DDF864C004F056
:103F68000F01230943EA057328091CF801101C46B0
:103F78000546904654EA050002F1FF3288F8001021
:103F8800EDD1099BC8EB030310930C9C109DA5422F
:103F9800B8BF254600240D951894BAF1000F02D039
:103FA8000D9D01350D950A9B13F002030F931EBF5B
:103FB8000D9C02340D940A9C14F0840540F046834D
:103FC800139C0D98C0EB040BBBF1000F40F33E832C
:103FD800BBF1100F49F24C2A2D99DCBFC0F6000A3C
:103FE8002C9A32DDC0F6000ACDF87C802095D846A0
:103FF8002C9AD3461024CA46159DDDF82C9004E06F
:10400800A8F11008B8F1100F19DD01321031072A94
:104018003D607C6007F108072C922D91F0DD0E9829
:1040280049462BAA38AF02F051FF00287FF459AF58
:10403800A8F110082D99B8F1100F2C9AE5DCD1469B
:10404800209DDA46C346DDF87C8001320BEB010483
:10405800072A2C922D9487E8000C00F3EC829DF837
:104068008FA00837BAF1000F0ED02C9B0DF18F02EC
:1040780001343A6001330122072B7A602D94D8BFAE
:1040880008372C9300F302840F9B6BB12C9B24AA56
:1040980002343A6001330222072B7A602D94D8BF8C
:1040A80008372C9300F3FE83802D00F046830C9D87
:1040B800109BC3EB050ABAF1000F43DDBAF1100FEC
:1040C8002C9BDCBF944D0F9527DD93482246102585
:1040D800DDF838B00B9C0F9004E0AAF1100ABAF191
:1040E800100F19DD01331032072B3E607D6007F198
:1040F80008072C932D92F0DD584621462BAA38AF9D
:1041080002F0E4FE00287FF4ECAEAAF1100A2D9A22
:10411800BAF1100F2C9BE5DC144601330F9D072BD9
:1041280054442C9387E82004D8BF08372D9409DD20
:104138000E982BAA0B9902F0C9FE00287FF4D1AE85
:104148002D9C38AF0A9DEB0500F182822C9B109DB7
:104158000133C7F80080072B2C447D602D942C93E5
:1041680000F37A8308370A9D6B0740D513980D9999
:10417800451A002D3BDD102D49F24C2A2C9BC0F628
:10418800000A22DD22464FF01008DDF838B0159CF1
:1041980002E0103D102D17DD01331032072B87E8A0
:1041A80010012C9307F108072D92F2DD58460B9960
:1041B8002BAA38AF02F08AFE00287FF492AE103D99
:1041C8002D9A102D2C9BE7DC144601332C44072B29
:1041D8002C932D94C7F800A07D6008DD0E982BAABB
:1041E8000B9902F073FE00287FF47BAE2D9C129D84
:1041F8000D9913988142ACBF6D182D181295002C9B
:1042080040F03583002338AF2C93BBE5E308E90879
:1042180043EA457390460D4604F007021C4602F136
:10422800300354EA050108F1FF3288F80030EDD177
:104238000A9C4146E00700F1F584099DC8EB050595
:104248001095A2E60A9D169315F0200300F0B4809D
:10425800149C0023E21D22F0070202F108051495C0
:10426800D2E9004559E699F8003009F101042A2BF2
:1042780000F09187A3F13001092982BFA1460024EB
:104288000C943FF6B4AD002000EB800014F8013B1D
:1042980001EB4000A3F130010929F5D940EAE070AB
:1042A800A1460C90A3E50A9D169345F010050A95C2
:1042B8000A9CA3063FF527AE0A9DED0600F1C483CC
:1042C8000A9C640640F1C083149800250123043039
:1042D80030F8044C149020E60A9C169344F010041D
:1042E8000A940A9D8DF88F20A90640F16581149CD7
:1042F800E31D23F0070303F108051495D3E9002310
:1043080014461D46002A73F10000C0F2BB839DF8D5
:104318008FA0012305E600BF5C9200080A9C169353
:1043280025078DF88F2040F1AB84149DEB1D23F0F9
:10433800070303F1080414941D681B955B681C931C
:104348001B981C9902F09AFD01281B9840F078846C
:10435800002200231C9904F06BF9002840F04A86DB
:104368009DF88FA00325002449F2702849F26C2398
:104378000D95C0F600080A9DC0F600030C94169C23
:1043880025F080050A950325472CD8BF9846109537
:104398000024189401E60A9D45F008050A9599F845
:1043A800003022E50A9C169344F010040A940A9DF2
:1043B80015F020037FF44CAF0A9C14F0100240F073
:1043C8004C830A9C14F0400300F04783149813466A
:1043D8000025043030F8044C14909EE50A9D45F001
:1043E80020050A9599F80030FFE4149C00251693DF
:1043F80004348DF88F5054F8048CB8F1000F00F095
:10440800D9850C9800284046C0F2AB8529460C9AFD
:10441800FFF772F9002800F0FF851494C8EB00003C
:104428000C9C0C95A042B8BF0446109424EAE4758D
:104438000C9C0D959DF88FA01894AEE50A9D49F245
:104448009024C0F600041693A8068DF88F201994BE
:1044580040F19C80149CE31D23F0070303F1080539
:104468001495D3E900450A98C30740F1278254EA16
:10447800050100F02382169A302340F002008DF8DF
:1044880090300A9002238DF8912046E599F8003083
:104498002B22AAE499F8003049466C2B05BF09F194
:1044A80001090A9D0A9C45F020050BBF4B7844F092
:1044B80010040A950A9498E40A9D8DF88F20A9069D
:1044C80040F1EB83149C2168129C2246E5172B4689
:1044D800149DC1E900230435149553E4149A49F254
:1044E80090200A9D7823C0F600008DF8913045F0A1
:1044F800020516930A953023151D8DF890301495F2
:10450800022314680025199007E50A9C44F040042A
:104518000A9499F8003068E499F80030002A7FF48A
:1045280064AC202261E40A9D45F001050A9599F8DA
:1045380000305AE4149C149D24682B1D002C1394FD
:10454800FFF6B5AC149399F800304EE4149A0124A0
:10455800149D0DF1B80816930023126804359A4685
:104568000D9414958DF88F300C93189310948DF842
:10457800B82018E50A9D49F27C24C0F60004169379
:10458800A8068DF88F2019943FF564AF0A9CE106C0
:1045980000F153820A9C620640F14F82149800256C
:1045A800043030F8044C14905DE70A9D1693A90670
:1045B8008DF88F203FF59BAE0A9CE20600F15582EC
:1045C8000A9C630640F151821498043030F9044C77
:1045D80014902246E5172B4694E60A9D45F080057F
:1045E8000A9599F8003000E40024A3F13001204630
:1045F800139400EB800019F8013B01EB4000A3F194
:1046080030010929F5D91390FFF7F1BB16938DF8FE
:104618008F20002B3FF45EAC169C002301259A46A0
:104628000D950DF1B8088DF8B8408DF88F300C93C2
:1046380018931095B7E40E982BAA0B9902F046FC34
:1046480000287FF44EAC9DF88FA038AF2D9C09E56B
:10465800169D652D40F3B9801B98002200231C99F4
:1046680003F0DCFF002800F02C812C9B0122179D11
:10467800013413447A60072B2D943D60D8BF083766
:104688002C9300F31683259B119DAB4203DB0A9DF7
:10469800ED077FF568AD1D9D2C9B2C441A9D0133B9
:1046A8002D94072B2C933D601D9D7D60D8BF083746
:1046B80000F35E83119D05F1FF38B8F1000F7FF715
:1046C80052ADB8F1100F2C9B40F3AA81AC4D4FF0BE
:1046D800100ADDF82CB00F950E9D05E0A8F1100822
:1046E800B8F1100F40F39E8101331034072B87E88F
:1046F80040042C9307F108072D94EFDD284659460E
:104708002BAA38AF02F0E2FB00287FF4EAAB2D9C1D
:104718002C9BE3E7002B40F0B4800A9CE2075CBFC7
:1047280010930DF1E0087FF530AC219D30230DF199
:10473800DF088DF8DF30109527E413980D99451A96
:10474800002D7FF7B4AC102D2C9BDCBF8C4A0F9248
:1047580024DD8B4822464FF0100BDDF838A00B9C67
:104768000F9002E0103D102D17DD01331032072B9A
:1047780087E840082C9307F108072D92F2DD504690
:1047880021462BAA38AF02F0A1FB00287FF4A9AB81
:10479800103D2D9A102D2C9BE7DC144601330F9900
:1047A800072B2C442C9387E82200D8BF08372D9478
:1047B8007FF77DAC0E982BAA0B9902F087FB002897
:1047C8007FF48FAB2D9C38AF71E4119D2C9B012D8C
:1047D80040F3E2810121621C0B44C7F80080072BDB
:1047E80079602D92D8BF08372C9300F3F4811A9D75
:1047F8005C1CDDF874A0072C2C943D6092441D9D30
:10480800CDF8B4A07D60D8BF083700F3D7811B98D6
:10481800002200231C9903F001FF002840F0B28019
:104828000134119D072C08F1010205F1FF332C9486
:104838009A443A60CDF8B4A07B6000F3E48008376E
:10484800631C1E9D1E9C072B27AA2C93544487E8A3
:1048580024002D947FF786AC0E982BAA0B9902F0B2
:1048680035FB00287FF43DAB2D9C38AF7BE40E98D8
:104878002BAA0B9902F02AFB00283FF4C3ACFFF7E0
:1048880030BB10920DF1E008FFF77FBB0E982BAA02
:104898000B9902F01BFB00287FF423AB2D9C38AF4B
:1048A800FFF7F2BB0E982BAA0B9902F00FFB00281A
:1048B8007FF417AB2D9C38AFFFF7F6BB0223FFF749
:1048C8002CBB259B002B40F3FF81119D1898119953
:1048D8008542A8BF0546002D41440C910CDD2C9B58
:1048E8002C44C7F8008001337D60072B2D942C934E
:1048F800D8BF083700F34383189A25EAE575C5EB56
:10490800020ABAF1000F40F3DD80BAF1100F2C9BB8
:10491800DCBF1B4D0F9540F3C080194D22464FF068
:10492800100B0B9C0F950E9D05E0AAF1100ABAF129
:10493800100F40F3B18001331032072B87E840088D
:104948002C9307F108072D92EFDD284621462BAA64
:1049580038AF02F0BBFA00287FF4C3AA2D9A2C9B2B
:10496800E3E7002D08BF0A2C80F04181219D3034F7
:104978000DF1DF088DF8DF401095FFF706BB00BF8B
:104988005C920008119D05F1FF38B8F1000F7FF720
:1049980057AFB8F1100FDCBFA84B0F9328DDA74D18
:1049A80053464FF0100BDDF82CA00F950E9D04E038
:1049B800A8F11008B8F1100F19DD01341033072CD5
:1049C80087E840082C9407F108072D93F0DD284666
:1049D80051462BAA38AF02F079FA00287FF481AA51
:1049E800A8F110082D9BB8F1100F2C9CE5DC9A4615
:1049F80001340F9B072CC2442C94CDF8B4A087E84F
:104A080008017FF71CAF0E982BAA0B9902F05EFAEB
:104A180000287FF466AADDF8B4A038AF2C9C0FE715
:104A2800864D0F9501330F9D072B44442C932D94ED
:104A380087E820017FF796AB0EE7149D043555F8FB
:104A4800044C149500250EE5149D0123043555F8F2
:104A5800044C14950025FFF760BA149D043555F8E9
:104A6800044C14950025FFF758BA149D043555F8E1
:104A7800044C14952246E5172B46002A73F10000D2
:104A8800BFF645AC4FF02D0A644265EB45058DF83D
:104A98008FA00123FFF745BA144601330F9D072B5A
:104AA80054442C9387E82004D8BF08372D9409DD97
:104AB8000E982BAA0B9902F009FA00287FF411AA84
:104AC8002D9C38AF189D259BA844119DAB4249DB0E
:104AD8000A9DE90746D40C981199C8EB0005CB1A32
:104AE800AB42B8BF1D46002D0CDD2C9A2C44C7F8EC
:104AF800008001327D60072A2D942C92D8BF083798
:104B080000F34A8225EAE575C5EB0308B8F1000F02
:104B18007FF729ABB8F1100F2C9B81DD474D4FF083
:104B2800100ADDF82CB00F950E9D05E0A8F11008CD
:104B3800B8F1100F7FF776AF01331034072B87E8F1
:104B480040042C9307F108072D94EFDD28465946B9
:104B58002BAA38AF02F0BAF900287FF4C2A92D9C1D
:104B68002C9BE3E71D9D2C9A2C441A9D01322D9411
:104B7800072A2C923D601D9D7D60D8BF0837AADDAD
:104B88000E982BAA0B9902F0A1F900287FF4A9A985
:104B9800259B38AF2D9C9EE70A9DEA073FF51AAE84
:104BA800012204F1010A9C18C7F80080072CCDF8EF
:104BB800B4A02C947A607FF742AE24E70E982BAA13
:104BC8000B9902F083F900287FF48BA9DDF8B4A0D3
:104BD80038AF2C9C1BE60E982BAA0B9902F076F99D
:104BE80000287FF47EA92D9A38AF2C9BFFE50DF1A4
:104BF800DF0B204629460A22002303F069FDD84628
:104C08002046294600230BF1FF3B303288F800206C
:104C18000A2203F05DFD04460D4654EA0500E8D17A
:104C2800FFF7AFB9302B3FF4ACA9099C302390466D
:104C380001F8013CA41A1094FFF7A7B95C92000888
:104C48001C9902F01BF9002840F0AB8003250A9C50
:104C580049F2782849F274230D95C0F60008169D8C
:104C6800C0F6000324F080040C900A94472DD8BFA6
:104C780098460324189010949DF88FA0FFF78DB9DB
:104C8800149CE31D23F0070303F1080514951C6821
:104C98001B945B681C93FFF753BB0A9CE20672D512
:104CA800149D129C043555F8043C14951C60FFF7BC
:104CB80069B80E982BAA0B9902F008F900287FF41E
:104CC80010A92D9C38AFDEE42C9A0121179D0134E0
:104CD8000A442D94072A2C923D60796000F31281D2
:104CE8000837194629B9119D1DB90A9DE8077FF5AE
:104CF8003AAA2C9B1D9A01331D9D22441A9C072B0E
:104D08002D927D603C60D8BF08372C9300F3BA81A0
:104D1800C1F1000ABAF1000F40F31681BAF1100F81
:104D2800DCBF9C4C0F9440F3F9809A4D1024DDF8B9
:104D38002CB00F950E9D05E0AAF1100ABAF1100FDC
:104D480040F3EC8001331032072B3E607C6007F1A2
:104D580008072C932D92EFDD284659462BAA38AF29
:104D680002F0B4F800287FF4BCA82D9A2C9BE3E746
:104D78000E982BAA0B9902F0A9F800287FF4B1A885
:104D88002D9C38AF96E4149C0A9D043454F8043CD6
:104D980015F0400F129D149414BF1D801D60FEF77E
:104DA800F1BF0C9D169C013524F0200504BF062494
:104DB8000C9406D0472D04D10C9C002C08BF01246C
:104DC8000C941C9B0A9C002B44F480740F94BDBF68
:104DD8001C464FF02D0B04F1004ADDF870A0A8BF67
:104DE8004FF0000BB5F1460461426141002930D013
:104DF80003200C9C5346009025A81B9A029026A8D5
:104E08000194039029A804900E98079100F002FBE2
:104E1800472D0799804603D10A9CE00740F1F080AE
:104E28000C9C444451B398F80030302B00F0848136
:104E3800259B1C4422E00E984021FDF761FA206072
:104E48002061002800F0B6810B9C40236361FEF7C7
:104E580079BF452D40F031810C9802211B9A5346A9
:104E6800441C0091019425A90E98029126A903914A
:104E780029A9049100F0CEFA8046044400231B9827
:104E88000022514603F0CAFB234648B9299B9C429D
:104E980006D930215A1C29921970299B9C42F9D8AD
:104EA800472DC8EB0303119300F0AE80169C652CC8
:104EB80040F38A81169D662D00F00181259C189487
:104EC800189C119DAC42C0F2EA800A9C189DE0072C
:104ED8004BBF013525EAE57325EAE57367244DBF25
:104EE800672410951694109548BF1694BBF1000FCF
:104EF80075D10F9C0D93CDF830B00A949DF88FA012
:104F0800FFF74BB80E982BAA0B9901F0DFFF00288A
:104F18007EF4E7AF259938AF2D9CE3E601330F9C6B
:104F2800072B52442C9387E81004D8BF08372D92DA
:104F38000ADD0E982BAA0B9901F0C8FF00287EF411
:104F4800D0AF2D9A38AF2C9B0133119D119C072BA4
:104F58002C931444C7F800802D947D607FF702A934
:104F68007AE40C95FDF78AFE14940C9C9DF88FA0AA
:104F7800189420EAE07510900D95FFF70EB80E987A
:104F88002BAA0B9901F0A2FF00287EF4AAAF2D9C52
:104F980038AFB1E45C9200080E982BAA0B9901F087
:104FA80095FF00287EF49DAF259B38AF119A2D9C64
:104FB800D31AA7E50C9DC24649F2A4281494062DDD
:104FC80028BF0625CDF830A01095544625EAE5758A
:104FD800CDF860A00D95C0F60008FEF7DEBF0F9D66
:104FE8004FF02D0A00240D938DF88FA00A950C948C
:104FF800FEF7D6BF4FF02D0A8DF88FA0FFF7B2B994
:10500800299BC8EB03031193259BDA1C11DB0C9C2D
:105018009C420EDB189353E70C9D149425EAE57522
:105028000D950C9D18900C9010959DF88FA0FEF78B
:10503800B4BF169D023D1695013B169D002B259386
:10504800BABF5B422D222B22092B8DF89C508DF87C
:105058009D2043DC30338DF89F3030238DF89E300F
:1050680028AB119D27AA119C9A1A012D1E9214444F
:10507800109478DD109B002418940133109323EAD0
:10508800E37333E70E982BAA0B9901F01FFF002852
:105098007EF427AF259938AF2D9A2C9B38E6189DBA
:1050A800119C002DD4BFC5F1020301231C446725C0
:1050B800109424EAE473169518E7022099E6259DD2
:1050C800002D189558DD0C9C002C44D10A9DED0745
:1050D80041D4189C24EAE473109407E746F2676108
:1050E8000DF1AA05C6F2666181FB0320DA172C468A
:1050F800013DC2EBA00202EB8200A3EB4000134685
:10510800092B00F130022270EEDC0DF1AB003033D8
:10511800A842DAB204F8012C53D90DF19D012346B7
:1051280001E013F8012B834201F8012FF9D148ADB2
:10513800C4EB4503F63B94E71B9800220023514635
:1051480003F06CFA00287FF473AE0C98C0F10103E9
:1051580025931C4492E60C9D189C6B1C1C441094CF
:1051680024EAE473C2E60A9C14F0010382D1109D7C
:10517800189325EAE573B9E60C9D35B90A9CE4074E
:105188005CBF012310937FF5B1AE0C9D02351095DD
:1051980025EAE573AAE6149D99F80130A1462D6821
:1051A8000C95149D291D0C9D1491002DBEF61DAE65
:1051B800FEF718BE0E9D0C234FF0FF302B60FEF754
:1051C80098BE0DF19E034CE7259B35E740F20C0392
:1051D800C2F2000370B506461D680C4615B1AB69EE
:1051E800002B4DD049F22423C0F600039C4208BF8F
:1051F8006C680ED049F20423C0F600039C4208BF35
:10520800AC6806D049F2E413C0F600039C4208BF1C
:10521800EC68A28993B218070CD52169A9B113F0DB
:1052280001021ED063690022A2605B42A361F1B152
:10523800002070BDD9063CD55D0725D4216942F010
:105248000803A3819BB20029E9D103F42072B2F5C7
:10525800007FE4D02146304601F0F0F8A3892169A7
:10526800DDE7980758BF6269A2600029E0D1A389E9
:105278001A06DDD543F040034FF0FF30A38170BD1F
:105288002846FCF79FFEADE7616B49B104F1440382
:10529800994203D03046FDF7D3FFA2890023636308
:1052A80022F0240221690023636012042160120C99
:1052B800C5E742F0400209234FF0FF303360A28176
:1052C80070BD00BF000000002DE9F04F8C46036957
:1052D80083460D6985B09D42C8BF002000F39680C3
:1052E800013D01F114040BF1140A54F82510AA0029
:1052F8005AF82500914601310292CDF804C0524473
:10530800039202F02DFCA144DDF804C08046002879
:1053180041D000212246084653460F4652F8041B46
:105328001E6891451FFA81FE4FEA11410EFB08776E
:105338001FFA86FE01FB08F101EB1741BFB2C7EB6C
:105348000000864488B2C0EB16404FEA114700EBD4
:105358002E401FFA8EFE4EEA00414FEA204043F8E5
:10536800041BDBD2029A5AF80230A3B9039A131F1E
:105378009A450ED252F8043C5BB9A2F1080301E049
:10538800126832B99A451A4605F1FF35A3F10403AC
:10539800F6D3CBF810506146584601F063FB00285D
:1053A80033DB08F101085346002254F8046B1868EF
:1053B800A145B1B24FEA1646C1EB020287B202EB31
:1053C8000701C6EB104202EB214289B241EA0241D1
:1053D8004FEA224243F8041BE7D25AF825200AEB89
:1053E800850392B91A1F92450DD253F8042C52B96D
:1053F800083B01E0126832B99A451A4605F1FF35B3
:10540800A3F10403F6D3CBF81050404605B0BDE82D
:10541800F08F00BF2DE9F04F9BB0466A04469246D4
:105428009B46279D002E00F0BB82336853B17268FB
:105438000126194696409E605A6001F0B9F8636AE1
:1054480000221A60BBF1000FB4BF012300232B60B8
:105458004FF00003B4BF2BF00049D9461A46C7F6EF
:10546800F073C7F6F07209EA0303B8BFCB4693425C
:1054780014D0002200235046594603F0CFF8804646
:1054880028B3269E01233360289E002E00F0DC807E
:10549800AF4B581E33601BB0BDE8F08F269E49F213
:1054A800BC2042F20F73C0F600003360BAF1000F5F
:1054B80000F0AA80289E002EEDD0C378002B40F083
:1054C800B280C31C289E33601BB0BDE8F08F19AAB8
:1054D80018AB00922046019352465B4601F0D2FB7E
:1054E8005FEA19550B9040F0A180189F6FF4826312
:1054F800199D3D449D42C0F278824FF60E4305F255
:105508001242CFF6FF732AFA02F25B1B09FA03F084
:10551800104302F0A5FD013DB84601261596A1F1FC
:10552800F87100230022C3F6F87302F05BFC82A333
:10553800D3E9002302F00AFE81A3D3E9002302F095
:1055480053FC064628460F4602F09AFD7EA3D3E98F
:10555800002302F0FBFD02460B463046394602F0B6
:1055680043FC06460F4603F08BF839460022002319
:105578000490304603F05CF8002840F02682049E30
:10558800162E84BF01260F9612D849F2E021524602
:10559800C0F600015B4601EBC601D1E9000103F04A
:1055A80065F8002800F01F82013E049600260F9639
:1055B800C5EB0805013D069549BF6E4200260A96CF
:1055C800002654BF0A960696049E002EC0F2F1816A
:1055D800DDF818E00E96B6440026CDF818E00C96D3
:1055E800249E092E35D8052EC4BF043E2496249E39
:1055F800CCBF00250125B31E032B2CD8DFE813F000
:105608006103290270038D0549F2B02249F2BC23D7
:10561800C9F31300C0F60002C0F6000300280CBF4F
:105628001046184646E700F108034BE7CBF313038F
:10563800CDF8548043F07F535046A5F2FF35DDF88E
:10564800608043F440116CE749F2AC20C0F60000DA
:1056580021E700262496656A0023194620464FF064
:10566800FF3625936B600996149600F06BFF636A0A
:1056780001260D9628601B680893199B002BC0F221
:10568800C780049E0E2E00F3C380DDF894E049F233
:10569800E023099EC0F600034FEADE72002ECCBF5D
:1056A800002202F00102049E03EBC603D3E90001C5
:1056B800CDE90601002A40F06E8402460B465046AA
:1056C800594602F06DFE089E02F0DAFF751C80460E
:1056D80002F0D6FCDDE9062302F038FD02460B464F
:1056E8005046594602F07EFB099ADDF820E008F1A1
:1056F8003003012A8EF8003006460F465BD000239F
:105708000022C4F2240302F021FD002200230646F1
:105718000F4602F083FF002840F01985DDF820A02D
:10572800099808998244CDF80CA001F10209DDE935
:1057380006AB1AE0AFF3008061436F63A787D23FDF
:10574800B3C8608B288AC63FFB799F501344D33F68
:10575800AD92000802F0FAFC0022002306460F462C
:1057680002F05CFF002840F0F28452465B46304667
:10577800394602F015FE4D4602F082FF804602F0DF
:105788007FFC52465B4602F0E1FC02460B4630467F
:10579800394602F027FB08F1300E09F801EC002326
:1057A800DDF80CE00022C4F22403F14509F10109F7
:1057B80006460F46CED132463B463046394602F0C1
:1057C80013FB06460F463246DDE906013B4602F06A
:1057D8002FFF002800F07085DDF82090049E2A46EF
:1057E80015F8018C0895169605E04B4500F0B8842D
:1057F80013F8018C1A46B8F1390F02F1FF33F4D0CF
:10580800169E089208F101020496D2B21A70B1E00D
:105818000D9E002E40F0F1800C9E0A9DDDF834802C
:1058280006980028C8BF002D09DD03460A99AB4237
:10583800A8BF2B46ED1AC91AC01A0A9106900C9AED
:10584800002A1CDD0D9B002B00F07984002E10DD52
:1058580041463246204601F04DF80B9A80462046D4
:10586800414600F0A7FF0B990746204600F0A0FE2E
:105878000B97DDF830E0BEEB060240F0A784204627
:10588800012100F08DFF06460E98002805DD3146FF
:1058980020460E9A01F02EF806462499012940F375
:1058A800908300270E98002840F06C830120069B07
:1058B800034413F01F0300F09382C3F12002042A6B
:1058C80040F36885C3F11C030A99069A1D441944DC
:1058D8000A911A4406920A99002905DD0B99204677
:1058E8000A9A01F063F80B90069A002A04DD314603
:1058F800204601F05BF806460F9B002B40F0218301
:10590800249809990228D4BF002301230029C8BF7D
:105918000023002B00F01A820998002840F00F821B
:10592800314603460522204600F05EFE06460B98E7
:10593800314601F097F8002840F30182DDF8209005
:105948000025049A3123013289F80030049209F1C4
:10595800010308933146204600F02AFEB8F1000FF3
:1059680008D0454518BF002D40F04A8241462046E0
:1059780000F01EFE20460B9900F01AFE049E00223D
:105988004846731C089E3270269E3360289E002E5F
:105998003FF481AD0898306048461BB0BDE8F08FF1
:1059A800102000F0BFFD6062466086600660C66039
:1059B80048E50A9EDDF810E0CEEB06060A96CEF121
:1059C80000060C9600260E960AE6049802F058FB8C
:1059D80032463B4602F022FE00287FF4D0AD049EFA
:1059E800013E0496CBE50F90E2E54FF6EE30CFF698
:1059F800FF70401B0AFA00F08BE5249E012E40F34D
:105A0800158409980C99461E0998B142AFBFC6EB98
:105A180001060C9A0C96C2EB0603BFBF0E9EF61841
:105A28000E9600260028B9BF00230A990A9D099BF3
:105A3800B8BFC0EB01050A9A2046DDF818E001213D
:105A48001A440A929E44CDF818E000F0A9FE804658
:105A5800E6E600260D96049EDDF894E0B644CDF8FF
:105A680050E00EF101060996002E40F35983099E75
:105A78000E2E8CBF002505F001053746666A172FE4
:105A88004FF00001716009D9012204235B0011461F
:105A980003F114000132B842F8D97160204600F0D1
:105AA80051FD636A30601B680893002D3FF4E5AD33
:105AB800049ECDE912AB002E40F3AB8106F00F0235
:105AC80049F2E0233511C0F6000303EBC203E906EF
